:04000000B6EF07F060
:08000800046ED8CF05F0E0CF33
:1000100006F00001E9CF0CF0EACF07F0E1CF08F0DD
:10002000E2CF09F0D9CF0AF0DACF0BF0F3CF12F01C
:10003000F4CF13F0FACF14F0F5CF15F0F6CF16F099
:10004000F7CF17F0F8CF18F0FBCF19F000C00EF083
:1000500001C00FF002C010F003C011F09DA034EFFA
:1000600000F09EB069EF00F00EC000F00FC001F08C
:1000700010C002F011C003F00CC0E9FF07C0EAFF96
:10008000078E08C0E1FF09C0E2FF0AC0D9FF0BC01C
:10009000DAFF12C0F3FF13C0F4FF14C0FAFF15C05B
:1000A000F5FF16C0F6FF17C0F7FF18C0F8FF19C01C
:1000B000FBFF045006C0E0FF05C0D8FF1000ECCFE6
:1000C000FAFFECCFFBFFED52ED52EFCFE8FFF96EF8
:1000D0001200CE50CFCF03F0A66FCFCFA7F0D00E37
:1000E000A65F070EA75BA7C0CFFFA6C0CEFF00008C
:1000F000010E2D26D8B02E2AD8B42F2AD8B4302AF3
:100100009E9034EF00F0EA6A750EE96EEF500EE053
:10011000140E016E006A002EFED7012EFBD7BF0E13
:10012000006E002EFED700D0EF2EF2D724EF08F09D
:10013000A1C0A3F0A0C0A2F0A2C0E9FFA3C0EAFF43
:100140009FC0ECFFED529EC0EFFF020EA225E96EAC
:10015000000EA321EA6EEC6AED52EF6AA2C001F034
:10016000A3C002F056EF01F0020E9A25E96E000ED0
:100170009B21EA6EECCF9FF0ED52EFCF9EF09E53A5
:100180000CE19F530AE1020E9C25E96E000E9D21B1
:10019000EA6EEC6AED52EF6A1BD0020E9C25016EEE
:1001A000000E9D21036E9F6F020E9A25E96E000ED0
:1001B0009B21EA6EECCF03F0ED52EFCFA0F09FC091
:1001C000EAFF01C0E9FF03C0ECFFED52A0C0EFFF62
:1001D000020E9A25E96E000E9B21EA6E9DC0ECFF8F
:1001E000ED529CC0EFFF63EF01F09C51E96E9DC0A2
:1001F000EAFF9FC0ECFFED529EC0EFFF12001CC053
:1002000095F01BC094F0945303E19553D8B487D074
:1002100094C0E9FF95C0EAFFECCFBFF0ED52EFCFFD
:10022000BEF0BFBF70D094C0E9FF95C0EAFFECCF2D
:10023000C1F0ED52EFCFC0F09351C15D64E303E133
:100240009251C05D60E394C0E9FF95C0EAFFECCF36
:1002500099F0ED52EFCF98F0040E9225016E000E4A
:100260009321036E0350995D3EE303E19851015CD5
:100270003AE29251985DBE6F93519959BF6F040E47
:10028000BE5F000EBF5B040E9425C06F000E95216B
:10029000C16F9251C0279351C123BFC09FF0BEC010
:1002A0009EF0C1C0A1F0C0C0A0F042D702C097F03C
:1002B00001C096F095C09BF094C09AF097C09DF055
:1002C00096C09CF051D7C16BC06B93C0BFF0800E3D
:1002D000BF2795C09DF094C09CF0BFC09FF092C016
:1002E0009EF083DF0FD0C16BC06B99C0BFF0800E52
:1002F000BF2795C09DF094C09CF0BFC09FF098C0F0
:100300009EF073DF0CD0020E9425E96E000E95214D
:10031000EA6EECCF95F0ED52EFCF94F074D7945392
:1003200007E1955305E1000E016E026E08D007D07B
:10033000040E9425016E000E9521036E026EAEEF41
:1003400001F02DC000F02EC001F02FC002F030C02F
:1003500003F01200936B1C0E926F51D702C090F005
:1003600001C08FF091918F5303E19053D8B4F1D035
:100370008FC0E9FF90C0EAFF4D2AD8B44E2A4EC084
:10038000ECFFED524DC0EFFF020E8F25016E000E07
:100390009021036E01C092F0936F81B106D093C09B
:1003A000EAFF92C0E9FFEF9005D093C0EAFF92C048
:1003B000E9FFEF80020E8F25016E000E9021036E83
:1003C00001C092F0936F835306E1845304E1855397
:1003D00002E1865302E0010E01D0000EE8B006D023
:1003E00093C0EAFF92C0E9FFEF9205D093C0EAFF05
:1003F00092C0E9FFEF82030E8F25E96E000E902177
:10040000EA6E82C0EFFF040E8F25E96E000E902188
:10041000EA6E83C0EFFF84C0ECFF85C0ECFF86C0AE
:10042000ECFF080E8F25016E000E9021036E01C0B7
:1004300092F0936FEA6A480EE96E41DE93C0EAFFDC
:1004400092C0E9FF00C0EFFF01C0ECFF02C0ECFF6B
:1004500003C0ECFF0C0E8F25E96E000E9021EA6EB2
:10046000EF6AEC6AEC6AEC6A100E8F25E96E000EFA
:100470009021EA6E87C0EFFF88C0ECFF89C0ECFFD7
:100480008AC0ECFF140E8F25E96E000E9021EA6EF3
:10049000EC6AED52EF6A160E8F25E96E000E902180
:1004A000EA6E8EC0ECFFED528DC0EFFF180E8F2567
:1004B000E96E000E9021EA6EEC6AED52EF6A1A0EB8
:1004C0008F25E96E000E9021EA6EEC6AED52EF6A1C
:1004D000372AD8B4382A335202E134521BE01A0EBC
:1004E0008F25E96E000E9021EA6E36C0ECFFED52CA
:1004F00035C0EFFF180E3524E96E000E3620EA6E87
:1005000090C0ECFFED528FC0EFFF90C036F08FC06F
:1005100035F008D090C034F08FC033F090C036F082
:100520008FC035F08B5302E18C5312E08FC0E9FF8E
:1005300090C0EAFFECCF03F0ED52EFCF94F08CC007
:10054000EAFF8BC0E9FF03C0ECFFED5294C0EFFF60
:100550009181000E91B1010E016E1200346A336A6E
:10056000366A356A386A376A406A3F6A426A416A5F
:10057000446A436A795306E17A5304E17B5302E10A
:100580007C5308E07CC04BF07BC04AF07AC049F055
:1005900079C048F0000E026E0A0E016E0A0E006E5F
:1005A000806B02C07FF001C07EF07D6F010E816F15
:1005B000826B866B856B846B836F8A6B02C089F05C
:1005C00001C088F000C087F08C6B450E8B6F8E6B7E
:1005D0008D6BC0DE015038EF08F0FF0E926E896A15
:1005E000936E8A6ADF0E946E8B6A000E956E8C6A2B
:1005F000966E8D6A976E8E6AE00E986E8F6A02EF25
:1006000003F0EBD7370ECD6EAA6A010E016E43EFF1
:1006100008F076819D80C00EF212000E76B1010EB8
:10062000016E4EEF08F0000E0F01236F246F010ED4
:10063000256FC196C198C19AC050C00B2609C06EE3
:10064000C09EC2805534006E0036FC0E0016C250AB
:10065000830B0010C26E000E016EC150F80B01102A
:10066000C16E0001766B765314E17651150DF3508F
:10067000786B776F140E7725016E000E7821036E6C
:100680000150560FE96E000E0320EA6EEF6A762BDA
:10069000EAD7000E026E0B0E016EAA0E006E7A6B88
:1006A00002C079F001C078F0776F010E816F020E01
:1006B000826F866B856B846B640E836F8A6B02C05E
:1006C00089F001C088F000C087F08C6B8B6B8E6B5B
:1006D0008D6B40DE015059EF08F0212A8650F00B57
:1006E00020108F6E202A2050040802E1206A1F701B
:1006F0001FA009D08F98250E8D6EDC0E8C6E8E8A11
:100700008E8C8E9E07D08F78120E8D6E8C6A8E9A8C
:100710008E8C8E8E2150010A09E0050A0AE00C0A2F
:100720000CE0020A0CE0040A0DE00ED08E848E86E6
:100730000BD08E948E828E8607D08E6A05D08E84E2
:100740008E8802D08E6A216A1200B60E006E036A8D
:10075000026A016A945195119611971102E1006A9B
:100760000DD0D89001BE09D094379537963797377A
:10077000033602360136002EF4D7019E8EEF05F0C7
:100780009851D8B4A5D0A46F9C51D8B4A1D0A45F7F
:1007900005E37F0EA427D8B09BD006D0810EA45FBE
:1007A000D8A096D0D8B494D0A4C000F0016A026A50
:1007B000036AA36B99C0A2F0A28F9AC0A1F09BC05C
:1007C000A0F0190EA46F9F51A05F0DE2010EA15F72
:1007D0000AE2A25F08E2A35F06E2A32BA22BA12BF1
:1007E0009F51A02728D09E51A15F12E2010EA25F67
:1007F0000FE2A35F0DE2A32BA22B9E51A1279F51D5
:10080000A02719E3A12B17E1A22B15E1A32B13D0ED
:100810009D518009A25F0EE2010EA35F0BE2A32BA4
:100820009D518009A2279E51A127E9E3A22BE7E170
:10083000A32BE5D70380A42F01D00BD0D890A037ED
:10084000A137A237A337D890033602360136A53731
:10085000BAD7A5A106D0D890013202320332A5330F
:1008600002D0000635E0A5BF1ED0D890A037A13732
:10087000A237A3379F51A05F07E2010EA15F04E2F8
:10088000A25F02E2A35F1AE39E51A15F05E2010E9F
:10089000A25F02E2A35F12E39D518009A25F03E21F
:1008A000010EA35F0BE3032A09E1022A07E1012AF3
:1008B00005E1002A0DE001320232033299C0A4F0B2
:1008C0009D51A41BA4AF02D0018E06D0019E04D07E
:1008D000006A016A026A036AA5EF05F09851D8B46C
:1008E00071D0006E9C51D8B46DD0002604E3810E07
:1008F000002668E204D07F0E005E64E363E099C0E6
:10090000A0F09D51A01B998F9D8F9B519F03F4CF09
:10091000A2F09A519E03F4CF03F0F3CFA1F09F030E
:10092000F350A227F450A123000E03229B519E03F3
:10093000F350A227F450A123000E026A03220222E0
:1009400099519F03F350A127F4500322000E022275
:1009500099519E03F3500326F4500222000E016ABF
:1009600001229B519D03F350A127F4500322000E56
:10097000022201229A519D03F3500326F4500222D1
:10098000000E012299519D03F3500226F4500122DA
:10099000002A01BE05D0A137033602360136000613
:1009A000000EA1AF0AD0032A02220122015005E164
:1009B000025003E1035001E1002AA0BF018EA0AF65
:1009C000019E04D0006A016A026A036ABCEF05F066
:1009D0008E0E006E9451005E95C002F096C001F03C
:1009E000028E005209E0D890025202E1015204E066
:1009F00002320132002EF7D795AF05D0011E021E3C
:100A0000012AD8B4022AC5EF05F08B6B8A6B896B7B
:100A1000886B34C08DF033C08CF0EA6A480EE96E02
:100A20005FEC00F003C091F002C090F001C08FF0C5
:100A300000C08EF04F508E5F50508F5B5150905BD6
:100A40005250915B0CE190530AE18F510208D8B0EB
:100A5000ABD0FF0A04E18E51E708D8B0A5D08C5185
:100A60008D1130E0180E8C25E96E000E8D21EA6E96
:100A7000ECCF8DF0ED52EFCF8CF08C518D1122E048
:100A80000C0E8C25E96E000E8D21EA6EEFCF00F082
:100A9000ECCF01F0ECCF02F0ECCF03F00050882750
:100AA0000150892302508A2303508B23180E8C2572
:100AB000E96E000E8D21EA6EECCF8DF0ED52EFCF96
:100AC0008CF0DBD78B530AE18A5308E18951020885
:100AD0000CE2FF0A03E18851E80807E2E80E006E25
:100AE000030E016E026A036A08D088C000F089C054
:100AF00001F08AC002F08BC003F003C08BF002C08B
:100B00008AF001C089F000C088F08BC097F08AC0DD
:100B100096F089C095F088C094F017D603C091F084
:100B200002C090F001C08FF000C08EF003C09BF0B7
:100B300002C09AF001C099F000C098F09F6B9E6BC4
:100B40007A0E9D6F880E9C6F1BD603C091F002C079
:100B500090F001C08FF000C08EF003C09BF002C087
:100B60009AF001C099F000C098F09F6B9E6B480E00
:100B70009D6F850E9C6FB2D603C097F002C096F0B1
:100B800001C095F000C094F023D701C047F0EA6A95
:100B9000480EE96E5FEC00F003C052F002C051F065
:100BA00001C050F000C04FF012008D6B8C6B8B6B4E
:100BB0008A6BC282C2B2FED7896BC4CF88F06B51F8
:100BC000150DF350906B8F6F560E8F25E96E000E4A
:100BD0009021EA6E89C0ECFFED5288C0EFFF6B51A7
:100BE000150DF350906B8F6F040E8F27000E90231E
:100BF0006B51150DF350926B916F140E9125016E90
:100C0000000E9221036E0150560FE96E000E032074
:100C1000EA6EEF50EF2A070B006ED89000360050B6
:100C2000036A8F25016E905103220150560FE96E21
:100C3000000E0320EA6E89C0ECFFED5288C0EFFF82
:100C40008E6B8E51070829E36B51150DF350906B95
:100C50008F6F040E8F27000E9023D8908E35036A75
:100C60008F25016E905103220150560FE96E000E40
:100C70000320EA6EECCF03F0ED52EFCF00F003C09B
:100C800001F0026A036A00508A2701508B23025048
:100C90008C2303508D238E2BD4D76B51150DF3501D
:100CA000906B8F6F020E8F25016E000E9021036EE8
:100CB0000150560FE96E000E0320EA6E8D31036E6F
:100CC0008C31026E8B31016E8A31006E033202323A
:100CD0000132003203320232013200321F0E03169B
:100CE00000C0EFFF01C0ECFF010E6B256B6B036AC8
:100CF0006B51550FE96E000E0320EA6EEFCF8FF0B7
:100D00008F35006E0036FC0E0016C250830B0010AB
:100D1000C26E000E016EC150F80B0110C16E1200C0
:100D200034C076F033C075F075517611D8B417D150
:100D3000020E7525E96E000E7621EA6EEFA003D152
:100D4000100E7525E96E000E7621EA6EEFCF7FF06A
:100D5000ECCF80F0ECCF81F0ECCF82F07F5307E155
:100D6000805305E1815303E18253D8B4ECD0036A88
:100D70004C50390FE96E000E0320EA6EEFCF7FF082
:100D8000030E7525E96E000E7621EA6EEF507F5D49
:100D9000D8A4D9D0EA6A480EE96E5FEC00F003C02F
:100DA0007AF002C079F001C078F000C077F0080E48
:100DB0007525E96E000E7621EA6EEFCF00F0ECCFDC
:100DC00001F0ECCF02F0ECCF03F00050775D7B6FC9
:100DD000015078597C6F025079597D6F03507A59D0
:100DE0007E6F040E7525E96E000E7621EA6EEFCF58
:100DF00000F0ECCF01F0ECCF02F0ECCF03F00350A9
:100E00007E5D0CE31AE102507D5D08E316E10150BE
:100E10007C5D04E312E100507B5D0FE2020E75255C
:100E2000016E000E7621036E01C0E9FFEA6E000E2E
:100E3000EFB2010E000AD8A486D0080E7525E96E1F
:100E4000000E7621EA6E77C0EFFF78C0ECFF79C024
:100E5000ECFF7AC0ECFF0C0E7525E96E000E7621D2
:100E6000EA6E77C0EFFF78C0ECFF79C0ECFF7AC084
:100E7000ECFF100E75257F6F000E7621806F816B61
:100E8000D8B0812B75C0E9FF76C0EAFFECCF6FF0D8
:100E9000ED52EFCF6EF0140E7525016E000E762127
:100EA000036E01C084F0856F160E7525E96E000E85
:100EB0007621EA6EECCF73F0ED52EFCF72F080C086
:100EC000EAFF7FC0E9FF03C071F001C070F05FEC82
:100ED00000F00C0E7525016E000E7621036E01C028
:100EE0007FF0806FEA6A480EE96E5FEC00F003C0A5
:100EF00084F002C083F001C082F000C081F00C0ECB
:100F00007525E96E000E7621EA6EEFCF00F0ECCF8A
:100F100001F0ECCF02F0ECCF03F00050815D006EE9
:100F200001508259016E02508359026E0350845958
:100F300080C0EAFF7FC0E9FF00C0EFFF01C0ECFF07
:100F400002C0ECFFEC6E180E7525E96E000E7621DE
:100F5000EA6EECCF76F0ED52EFCF75F0E5D64C2A85
:100F60004C50060801E14C6A8DEF08F0F86AD09EFB
:100F7000078E140E006E100E016E020EE96E000E4A
:100F8000EA6EEE6A002EFDD7012EFBD7700ED36EEF
:100F9000400E9B6E646A948694889F0EC86E280EDD
:100FA000C66EC78EC79C1F9023D00200200000048D
:100FB000002D0000000006003900010002000102BF
:100FC00000450000030045000000054047000B40BD
:100FD00048000100550001006B00020F2E000001C7
:100FE0000F5400010F6400010F9B40010FD37000EC
:100FF000000EF86E0F0EF76EAA0EF66E0900F55091
:10100000006E000A13E00900F550016EE8BE05D03D
:101010003F0BEA6E0900F5CFE9FF01BC090001AC06
:101020000900F5CFEEFF004EE9D7F9D7F86A1C6A40
:10103000C20E1B6E0E0EC36F500EC26FC56BC46B1B
:10104000640E756F83EF00F0000E026E030E016EEA
:10105000420E006E786B02C077F001C076F0756FBB
:101060007C6B02C07BF001C07AF0796FAEEF02F0CA
:10107000749101B0748174A154D0000E74B1010E4A
:10108000756F01EF03F0755101147491E8B074812C
:10109000000E74B1010E756F09EF03F07551011464
:1010A0007491E8B07481000E74B1010E756F13EF86
:1010B00003F0755101147491E8B07481000E74B19D
:1010C000010E756F000E026E060E016EDA0E006ED6
:1010D000796B02C078F001C077F0766F010E816FF6
:1010E000020E826F866B856B030E846FE80E836F32
:1010F0008A6B02C089F001C088F000C087F08C6B59
:101100008B6B8E6B8D6BAAEC01F075510114749191
:10111000E8B0748174A103D003D6FED701D0FFD705
:0611200001D0FFD703001F
:020000040030CA
:0E00000015C8707C01899100FFC0FFE0FF4031
:00000001FF
;PIC18F67K22
;CRC=97B4  CREATED="05-Dec-24 21:28"
